:030000000206AF46
:0C06AF00787FE4F6D8FD75817D0206F628
:10061100256278202562782025627820256278205D
:100621002562782025627820256278202562780D60
:100631000A0068656C6C6F20696E69740D0A00634D
:100641006865636B206E72662E2E2E0D0A0063683C
:1006510065636B206E7266206F6B210D0A007365F6
:100661006E64206E72660D0A0073656E64206E7290
:100671006620646F6E650D0A0073656E64206E728C
:1006810066206972712074696D656F757420657279
:10069100726F720D0A0073656E64206E7266206D52
:0E06A1006178207478206572726F720D0A0005
:1007F000016A0008620000000000000000602000A4
:1008000000000000000000000000000000000000E8
:1008100000000000000000000000000000000000D8
:0B08200000087600000000000000004F
:100A2F00E4FFFEE4FDFC0DBD00010CBC01F8BDF4BC
:0C0A3F00F50FBF00010EBE03EABFE8E7A0
:010A4B002288
:03002B000209A225
:1009A200C0E0C0D075D000C00075BC007462256A7A
:1009B200F8A6BD056AD3E56A940774809480400363
:1009C200756A00E56A4488F5BCD000D0D0D0E03228
:100A6500759DFFE4F5BDE56A4488F5BC7F0A120A69
:050A7500C575A8A022D8
:10083A007E007F407D007B017A0079001204BB753F
:10084A000BFF750C06750D1185620E85630F8564A5
:10085A001085651185661285671385681485691583
:10086A007B017A00790012008A7B017A0079000202
:02087A000A8DE5
:10055C007F64120AC5759620E4F595D2A6D2A7122F
:10056C000A7A7BFF7A067933120A8D120A65120712
:10057C003BEF6010C2A77BFF7A067940120A8D12FE
:10058C000A2F80EAD2A77BFF7A06794F120A8D12C6
:10059C000A117876A66508A66308A66808A66408FA
:1005AC00A66608A6677BFF7A06795F120A8D7B0028
:1005BC007A00797612079D8F6BE56B30E512C2A637
:1005CC007F0A120AC5D2A67BFF7A06796A120A8DB7
:1005DC00E56B30E712C2A77F0A120AC5D2A77BFFD0
:1005EC007A06797A120A8DE56B30E412C2A77F0A7B
:1005FC00120AC5D2A77BFF7A067997120A8D7F3231
:05060C00120AC5808DFB
:100A4C00112233445500000000000000000000009B
:090A5C0000000000000000000091
:0E082B0005713443101001056C3443101001A8
:0B0AAD000000007F0B7EBEDEFEDFFCC1
:010AB800221B
:1009D200E4FBFAEF3392A2EF25E0FFD2A3A2A1E457
:1009E200334207C2A30BBB00010AEB64084A70E35F
:0109F20022E2
:1008BB007D017F211208E27D017F221208E27DFA81
:1008CB007F241208E27D787F251208E27D087F31B4
:0708DB001208E27D0E7F26EA
:0208E200AE0561
:1008E400C2A41209D2EFFD7C00AF061209D2D2A431
:0208F400AF054E
:0108F60022DF
:0C0AA000C2A41209D2E4FF1209D2D2A4B1
:010AAC002227
:0608F7008B5C8A5D895E46
:1008FD00C2A41209D27560008F61E4FDFCC3ED95B1
:10090D005FEC9400501AE4FF1209D2AB5CAA5DA90A
:10091D005E8D828C83EF1204990DBD00010C80DD7C
:04092D00D2A4AF6140
:0109310022A3
:0D087C00C2A57A0079717B00755F057F30A1
:060889008B5C8A5D895EB4
:10088F00C2A41209D2AE07E4FDEDC3955F5018ABB9
:10089F005C055EE55EAA5D7002055D14F9120480C9
:0B08AF00FF1209D20D80E2D2A4AF06B8
:0108BA00221B
:060932008B1C8A1D891ECA
:10093800E4F51F7F07120AA0A907AD017F27120857
:10094800E2E930E61CC2A5AB1CAA1DA91E755F080A
:100958007F611208F77DFF7FE21208E2751F01D25E
:03096800A5AF1F19
:01096B002269
:10079D00E4F542F543F544C2A5755F087FA0120844
:1007AD0089D2A530A017120AAD0543E543700205A5
:1007BD0042D394E8E542940340E94344807F071215
:1007CD000AA0A907AD017F271208E2E930E40A7DEE
:1007DD00FF7FE11208E2434410E930E50343442072
:0207ED00AF4417
:0107EF0022E7
:10073B0078427C007D007BFF7A0A794C7E007F0536
:10074B0012045A78477C007D007BFF7A0A79517E30
:10075B00007F1412045AC2A57A0079421208827BD8
:10076B00007A007947755F057F101208F7D2A5E56F
:10077B00476411701AE54864227014E549643370BC
:10078B000EE54A64447008E54B64557002FF227F06
:01079B00015C
:01079C00223A
:1009F30012087C7B007A00796C755F057F2A1208E8
:0E0A0300891208BB7D0F7F201208E2D2A522C7
:100A110012087C7B007A00796C755F057F2A1208C9
:0E0A2100891208BB7D0E7F201208E2D2A522AA
:0B0AB9000000007F0B7EBEDEFEDFFCB5
:010AC400220F
:080AC500AD07120AB9DDFB22A6
:100A7A00759850438E01438E0475D7E075D6FE43B0
:030A8A008E1022A9
:080ACD008F993099FDC29922B6
:100A8D00120480FF600C120ACD740129F9E43AFAC0
:030A9D0080EE22C6
:10096C00E4FFFEFD30982D0D74222401F8A699C2E7
:10097C0098C3EF94DCEE9405501630980C0D74224D
:10098C002DF8A699C298E4FEFF0FBF00010E80E17E
:05099C008D22C322D3EF
:0109A1002233
:1006BB0002055CE493A3F8E493A34003F68001F2F4
:1006CB0008DFF48029E493A3F85407240CC8C33340
:1006DB00C4540F4420C8834004F456800146F6DF0F
:1006EB00E4800B01020408102040809007F0E47EA8
:1006FB00019360BCA3FF543F30E509541FFEE49304
:10070B00A360010ECF54C025E060A840B8E493A3CA
:10071B00FAE493A3F8E493A3C8C582C8CAC583CAF5
:10072B00F0A3C8C582C8CAC583CADFE9DEE780BEAD
:0108390000BE
:10038A00E709F608DFFA8046E709F208DFFA803E55
:10039A0088828C83E709F0A3DFFA8032E309F60842
:1003AA00DFFA8078E309F208DFFA807088828C83AA
:1003BA00E309F0A3DFFA806489828A83E0A3F6085E
:1003CA00DFFA805889828A83E0A3F208DFFA804C38
:1003DA0080D280FA80C680D4806980F2803380100F
:1003EA0080A680EA809A80A880DA80E280CA803378
:1003FA0089828A83ECFAE493A3C8C582C8CCC583F0
:10040A00CCF0A3C8C582C8CCC583CCDFE9DEE780BF
:10041A000D89828A83E493A3F608DFF9ECFAA9F03E
:10042A00EDFB2289828A83ECFAE0A3C8C582C8CC94
:10043A00C583CCF0A3C8C582C8CCC583CCDFEADEAD
:10044A00E880DB89828A83E493A3F208DFF980CC0F
:10045A0088F0EF60010E4E60C388F0ED2402B40408
:10046A000050B9F582EB2402B4040050AF232345AF
:06047A0082239003DA73F7
:10048000BB010689828A83E0225002E722BBFE027A
:09049000E32289828A83E49322AD
:10049900F8BB010DE58229F582E5833AF583E8F099
:1004A900225006E92582C8F622BBFE05E92582C845
:0204B900F2222D
:10002E00E517240BF8E60517227808300702780B3F
:10003E00E475F0011205260204802000EB7F2ED21B
:10004E00008018EF540F2490D43440D4FF30040BAA
:10005E00EF24BFB41A0050032461FFE518600215A7
:10006E0018051BE51B7002051A30070D7808E4759C
:10007E00F001120526EF0205140200037403D207E5
:10008E008003E4C207F5178B088A09890AE4F5187C
:10009E00F51AF51BE51860077F2012006980F575CB
:1000AE0019FFC201C200C202C203C205C206C208C3
:1000BE00120037FF700D3007057F0012007AAF1B5C
:1000CE00AE1A22B4255FC2D5C204120037FF24D067
:1000DE00B40A00501A75F00A781830D50508B6FF24
:1000EE000106C6A426F620D5047002D20380D924B8
:1000FE00CFB41A00EF5004C2E5D20402027AD20144
:10010E0080C6D20080C0D20280BCD2D580BAD205C1
:10011E0080B47F201200692002077401B5180040D8
:10012E00F112002EFF1200690200A2D208D2068040
:10013E009512002EFB12002EFA12002EF94A4B7069
:10014E0006794B7A037BFF20022EE518602A7E008B
:10015E008E827583001204E760060EEE651970F04C
:10016E00C2D5EBC0E0EAC0E0E9C0E0EE1202C1D0B9
:10017E00E0F9D0E0FAD0E0FB120480FF60AAEBC0F9
:10018E00E0EAC0E0E9C0E0120069D0E02401F9D055
:10019E00E03400FAD0E0FBE5190460DCD519D98013
:1001AE00877BFF7A0279BDD202809C79108002791A
:1001BE0008C206C2088008D2D5790A8004790AC21C
:1001CE00D5E519047002F519E4FAFDFEFF12002EB2
:1001DE00FC7B0820011312002EFD7B1030000A124A
:1001EE00002EFE12002EFF7B20EC3382D592D550CE
:1001FE0013C3E43000069FFFE49EFEE42001039D3E
:10020E00FDE49CFCE4CBF8C201EC700CCFCECDCC5F
:10021E00E824F8F870F38017C3EF33FFEE33FEEDEA
:10022E0033FDEC33FCEB33FB994002FB0FD8E9EBCB
:10023E00300105F8D0E0C448B201C0E00AEC4D4EE2
:10024E004F78207B0070C2EAB5190040BCC0E012A6
:10025E0002C3D0F0D0E0200104C4C0E0C4B201C09B
:10026E00F0120052D0F0D5F0EB0200A212053601CA
:10027E003F5301B95801104C010C4201BD4F01C54D
:0F028E004401C54901254301CB5501AF4601AFDE
:10029D004501AF47036B5001142D01182E013B2B67
:1002AD00011C2301392003542A00D44800000133D6
:1002BD003F3F3F00790AA2D5200314300509B9103C
:1002CD00020404B9080104A2D5200602500104203D
:1002DD0002689202B518005034C0E07F2030031937
:1002ED007F30A20272067205500F12031AC202C2AB
:1002FD0006C205C2087F30800F300503E9C0E01249
:10030D000069300503D0E0F9D0E0B518CC30051701
:10031D007F30B9100C1200697F583004077F788048
:10032D0003B908031200693002057F2D0200697FB1
:10033D00202008F87F2B2006F322920280CF286E12
:10034D00756C6C2900D20112002E3001F8C20178B3
:10035D001830D50108F60200D42D5043495812002B
:10036D002E2403B405004001E49003669312005A55
:0D037D00743A12005AD2037518040201B937
:1004BB00EF4E6012EF60010EEDBB010B89828A8358
:1004CB00F0A3DFFCDEFA2289F05007F709DFFCA965
:0C04DB00F022BBFEFCF309DFFCA9F022BC
:1004E700BB010CE58229F582E5833AF583E02250CA
:1004F70006E92582F8E622BBFE06E92582F8E22214
:0D050700E58229F582E5833AF583E493222D
:10051400BB010689828A83F0225002F722BBFE01C6
:02052400F322C0
:10052600FAE6FB0808E6F925F0F618E6CA3AF622D6
:10053600D083D082F8E4937012740193700DA3A354
:1005460093F8740193F5828883E473740293686068
:06055600EFA3A3A380DF68
:10000300EFB40A07740D12000E740A309811A89900
:10001300B8130CC2983098FDA899C298B811F6305D
:0700230099FDC299F5992235
:00000001FF
