:030000000201E01A
:0C01E000787FE4F6D8FD75818B020227C1
:100414006D6F746F7220666F7265776172640D0A16
:10042400006D6F746F72206261636B776172640D2B
:100434000A0068656C6C6F20696E69740D0A00634C
:100444006865636B206E72662E2E2E0D0A0063683B
:0E04540065636B206E7266206F6B210D0A00CF
:10074B00E4FFFEE4FDFC0DBD00010CBC01F8BDF4A3
:0C075B00F50FBF00010EBE03EABFE8E787
:01076700226F
:10046200C2A5D2A4C2A3D2A2C2A1D2A0C2B7D2B6FE
:10047200C2B5D2B4C2B3D2B27BFF7A0479141207E6
:10048200AC12074BD2A5C2A4D2A3C2A2D2A1C2A0CF
:10049200D2B7C2B6D2B5C2B4D2B3C2B27BFF7A046B
:0804A20079251207AC02074B9B
:10060400EFFD7C00D394B1748094804005D2A5C2E0
:10061400A422C3ED944DEC648094805005C2A5D20D
:07062400A422C2A5C2A4221A
:10062B00EFFD7C00D394B1748094804005D2A3C2BB
:10063B00A222C3ED944DEC648094805005C2A3D2EA
:07064B00A222C2A3C2A222F9
:10065200EFFD7C00D394B1748094804005D2A1C296
:10066200A022C3ED944DEC648094805005C2A1D2C7
:07067200A022C2A1C2A022D8
:10067900EFFD7C00D394B1748094804005D2B7C259
:10068900B622C3ED944DEC648094805005C2B7D274
:07069900B622C2B7C2B6226F
:1006A000EFFD7C00D394B1748094804005D2B5C234
:1006B000B422C3ED944DEC648094805005C2B5D251
:0706C000B422C2B5C2B4224E
:1006C700EFFD7C00D394B1748094804005D2B3C20F
:1006D700B222C3ED944DEC648094805005C2B3D22E
:0706E700B222C2B3C2B2222D
:10078100438E805389FB5389FC758CFE758A46D252
:08079100A9D2B9D28CD2AF222B
:03000B0002026C82
:10026C00C0E0C0D0A20892A2A20992A3A20A92B6A0
:10027C00A20B92B7A20C92A0A20D92A1A20E92A4D4
:10028C00A20F92A5A20092B4A20192B5A20292B2C0
:10029C00A20392B30508E508640A7008F5087521F5
:1002AC00FF7520FFE508B50902C208B50A02C209AC
:1002BC00B50B02C20AB50C02C20BB50D02C20CB5CD
:1002CC000E02C20DB50F02C20EB51002C20FB5114F
:1002DC0002C200B51202C201B51302C202B5140269
:0702EC00C203D0D0D0E032C4
:1005D000EDD39414748094805004E4FD800474EC92
:1005E0002DFDED75F00A84FDD3940A74809480404B
:1005F000027D0AEFC3940C74809480500674092F16
:04060000F8A6052231
:0202F300AE0754
:1002F5007C00EB600CC374809DF582E49CF58380E3
:100305000AED2480F582EC34FFF583D3E582940071
:10031500E583648094804011EE25E0FFAD821205EF
:10032500D0EE25E004FFE4802CC3E583648094804F
:10033500EE501425E0FFE4FD1205D0EE25E004FFA4
:10034500AD82EDF404800E25E0FFE4FD1205D0EE4C
:0903550025E004FFE4FD1205D0CF
:01035E00227C
:10013F007F6412000312078175923CE4F591759666
:10014F003FF59575B2FCF5B11207997BFF7A0479EB
:10015F00361207AC12035FEF6010C2A67BFF7A0462
:10016F0079431207AC12074B80EAD2A67BFF7A04C1
:10017F0079521207AC12070F7B007A00796C1205C7
:10018F0060EF6046786CE6FD7B01E4FF1202F378C6
:10019F006DE6FD1B7F011202F3786EE6FD0B7F0209
:1001AF001202F3786FE6FD7F031202F37870E6FD1B
:1001BF001B7F041202F37871E6FD7F051202F3C272
:1001CF00A77F02120003D2A780AE7F0A120003801E
:0101DF00A778
:100768001122334455000000000000000000000082
:0907780000000000000000000078
:0E07BF00056734431010010562344310100129
:0B07DB000000007F0B7EBEDEFEDFFC96
:0107E60022F0
:1006EE00E4FBFAEF339295EF25E0FFD294A296E465
:1006FE00334207C2940BBB00010AEB64084A70E355
:01070E0022C8
:1004E9007D017F211205107D017F221205107DFA01
:1004F9007F241205107D787F251205107D087F3134
:070509001205107D0E7F2694
:02051000AE0536
:10051200C2931206EEEFFD7C00AF061206EED293F6
:02052200AF0523
:0105240022B4
:0C07CE00C2931206EEE4FF1206EED29376
:0107DA0022FC
:060525008B5C8A5D895E1B
:10052B00C2931206EE7560008F61E4FDFCC3ED957E
:10053B005FEC9400501AE4FF1206EEAB5CAA5DA9C7
:10054B005E8D828C83EF12011D0DBD00010C80DDD1
:04055B00D293AF6127
:01055F002279
:0D04AA00C2927A0079677B00755F057F3094
:0604B7008B5C8A5D895E8A
:1004BD00C2931206EEAE07E4FDEDC3955F5018AB87
:1004CD005C055EE55EAA5D7002055D14F91201041E
:0B04DD00FF1206EE0D80E2D293AF0686
:0104E80022F1
:060560008B428A4389442E
:10056600E4F5457F071207CEA907AD017F271205DF
:1005760010E930E61CC292AB42AA43A944755F0853
:100586007F611205257DFF7FE2120510754501D2B8
:0305960092AF45DC
:01059900223F
:1003C100E4F519F51AF51BC292755F087FA01204B6
:1003D100B7D2923097171207DB051AE51A7002059A
:1003E10019D394E8E519940340E9431B807F071270
:1003F10007CEA907AD017F27120510E930E40A7D78
:10040100FF7FE1120510431B10E930E503431B2078
:02041100AF1B1F
:0104130022C6
:10035F0078427C007D007BFF7A0779687E007F05FD
:10036F001200DE78477C007D007BFF7A07796D7E77
:10037F00007F141200DEC2927A0079421204B07B21
:10038F00007A007947755F057F10120525D292E537
:10039F00476411701AE54864227014E5496433709C
:1003AF000EE54A64447008E54B64557002FF227FE6
:0103BF00013C
:0103C000221A
:10070F001204AA7B007A007962755F057F2A1204B2
:0E071F00B71204E97D0F7F20120510D292223E
:10072D001204AA7B007A007962755F057F2A120494
:0E073D00B71204E97D0E7F20120510D2922221
:0B07E7000000007F0B7EBEDEFEDFFC8A
:0107F20022E4
:08000300AD071207E7DDFB2247
:10079900759850438E01438E0475D7E075D6FE4394
:0307A9008E10228D
:0807F3008F993099FDC2992293
:1007AC00120104FF600C1207F3740129F9E43AFA00
:0307BC0080EE22AA
:10059A00E4FFFEFD30982D0D74222401F8A699C2BD
:1005AA0098C3EF94DCEE9405501630980C0D742223
:1005BA002DF8A699C298E4FEFF0FBF00010E80E154
:0505CA008D22C322D3C5
:0105CF002209
:1001EC0002013FE493A3F8E493A34003F68001F2E9
:1001FC0008DFF48029E493A3F85407240CC8C33314
:10020C00C4540F4420C8834004F456800146F6DFE2
:10021C00E4800B01020408102040809007BFE47EAC
:10022C00019360BCA3FF543F30E509541FFEE493D7
:10023C00A360010ECF54C025E060A840B8E493A39E
:10024C00FAE493A3F8E493A3C8C582C8CAC583CAC9
:10025C00F0A3C8C582C8CAC583CADFE9DEE780BE81
:0107CD00002B
:10000E00E709F608DFFA8046E709F208DFFA803ED4
:10001E0088828C83E709F0A3DFFA8032E309F608C1
:10002E00DFFA8078E309F208DFFA807088828C8329
:10003E00E309F0A3DFFA806489828A83E0A3F608DD
:10004E00DFFA805889828A83E0A3F208DFFA804CB7
:10005E0080D280FA80C680D4806980F2803380108E
:10006E0080A680EA809A80A880DA80E280CA8033F7
:10007E0089828A83ECFAE493A3C8C582C8CCC5836F
:10008E00CCF0A3C8C582C8CCC583CCDFE9DEE7803F
:10009E000D89828A83E493A3F608DFF9ECFAA9F0BE
:1000AE00EDFB2289828A83ECFAE0A3C8C582C8CC14
:1000BE00C583CCF0A3C8C582C8CCC583CCDFEADE2D
:1000CE00E880DB89828A83E493A3F208DFF980CC8F
:1000DE0088F0EF60010E4E60C388F0ED2402B40488
:1000EE000050B9F582EB2402B4040050AF2323452F
:0600FE00822390005E73F6
:10010400BB010689828A83E0225002E722BBFE02F9
:09011400E32289828A83E493222C
:10011D00F8BB010DE58229F582E5833AF583E8F018
:10012D00225006E92582C8F622BBFE05E92582C8C4
:02013D00F222AC
:00000001FF
